{
    "contractName": "KYC",
    "abi": [
        {
            "inputs": [],
            "stateMutability": "nonpayable",
            "type": "constructor"
        },
        {
            "anonymous": false,
            "inputs": [
                {
                    "indexed": true,
                    "internalType": "address",
                    "name": "_address",
                    "type": "address"
                }
            ],
            "name": "AddedBank",
            "type": "event"
        },
        {
            "anonymous": false,
            "inputs": [
                {
                    "indexed": true,
                    "internalType": "bytes32",
                    "name": "_AdharHash",
                    "type": "bytes32"
                },
                {
                    "indexed": true,
                    "internalType": "address",
                    "name": "_address",
                    "type": "address"
                }
            ],
            "name": "AddedCustomer",
            "type": "event"
        },
        {
            "inputs": [
                {
                    "internalType": "string",
                    "name": "_BankName",
                    "type": "string"
                },
                {
                    "internalType": "address",
                    "name": "_BankAddress",
                    "type": "address"
                },
                {
                    "internalType": "string",
                    "name": "_SharedPublicKey",
                    "type": "string"
                }
            ],
            "name": "AddNewBank",
            "outputs": [],
            "stateMutability": "nonpayable",
            "type": "function"
        },
        {
            "inputs": [
                {
                    "internalType": "bytes32",
                    "name": "AdharHash",
                    "type": "bytes32"
                },
                {
                    "internalType": "string",
                    "name": "_encryptedData",
                    "type": "string"
                }
            ],
            "name": "AddNewCustomer",
            "outputs": [],
            "stateMutability": "nonpayable",
            "type": "function"
        },
        {
            "inputs": [
                {
                    "internalType": "address",
                    "name": "_BankAddress",
                    "type": "address"
                }
            ],
            "name": "AllowBankforAddingCustomers",
            "outputs": [],
            "stateMutability": "nonpayable",
            "type": "function"
        },
        {
            "inputs": [
                {
                    "internalType": "address",
                    "name": "_BankAddress",
                    "type": "address"
                }
            ],
            "name": "AllowBankforKYC",
            "outputs": [],
            "stateMutability": "nonpayable",
            "type": "function"
        },
        {
            "inputs": [
                {
                    "internalType": "address",
                    "name": "_BankAddress",
                    "type": "address"
                }
            ],
            "name": "BlockBankFromAddingCustomers",
            "outputs": [],
            "stateMutability": "nonpayable",
            "type": "function"
        },
        {
            "inputs": [
                {
                    "internalType": "address",
                    "name": "_BankAddress",
                    "type": "address"
                }
            ],
            "name": "BlockBankFromPerformingKYC",
            "outputs": [],
            "stateMutability": "nonpayable",
            "type": "function"
        },
        {
            "inputs": [
                {
                    "internalType": "address",
                    "name": "_BankAddress",
                    "type": "address"
                }
            ],
            "name": "RetrieveBankData",
            "outputs": [
                {
                    "internalType": "string",
                    "name": "",
                    "type": "string"
                },
                {
                    "internalType": "address",
                    "name": "",
                    "type": "address"
                },
                {
                    "internalType": "string",
                    "name": "",
                    "type": "string"
                },
                {
                    "internalType": "uint256",
                    "name": "",
                    "type": "uint256"
                },
                {
                    "internalType": "bool",
                    "name": "",
                    "type": "bool"
                },
                {
                    "internalType": "bool",
                    "name": "",
                    "type": "bool"
                }
            ],
            "stateMutability": "view",
            "type": "function"
        },
        {
            "inputs": [
                {
                    "internalType": "bytes32",
                    "name": "AdharBankAddrHash",
                    "type": "bytes32"
                }
            ],
            "name": "RetrieveCustomerData",
            "outputs": [
                {
                    "internalType": "string",
                    "name": "",
                    "type": "string"
                },
                {
                    "internalType": "bool",
                    "name": "",
                    "type": "bool"
                },
                {
                    "internalType": "address",
                    "name": "",
                    "type": "address"
                }
            ],
            "stateMutability": "view",
            "type": "function"
        },
        {
            "inputs": [
                {
                    "internalType": "bytes32",
                    "name": "AdharBankAddrHash",
                    "type": "bytes32"
                }
            ],
            "name": "UpdateCustomerKyc",
            "outputs": [],
            "stateMutability": "nonpayable",
            "type": "function"
        }
    ],
    "bytecode": "608060405234801561001057600080fd5b50600280546001600160a01b03191633179055610ed1806100326000396000f3fe608060405234801561001057600080fd5b50600436106100935760003560e01c80637ac69a86116100665780637ac69a861461010157806383b2fa6a146101145780639324725a14610127578063abddcde51461013a578063f9ff32e61461015c57600080fd5b80634b2938bc14610098578063543122a1146100ad57806363ddf58c146100c057806375b3a363146100ee575b600080fd5b6100ab6100a6366004610a54565b61016f565b005b6100ab6100bb366004610abf565b6101cb565b6100d36100ce366004610a54565b610443565b6040516100e596959493929190610b89565b60405180910390f35b6100ab6100fc366004610a54565b6105bf565b6100ab61010f366004610a54565b610610565b6100ab610122366004610bde565b61065f565b6100ab610135366004610a54565b610742565b61014d610148366004610bde565b610790565b6040516100e593929190610bf7565b6100ab61016a366004610c2a565b61085a565b6002546001600160a01b031633146101a25760405162461bcd60e51b815260040161019990610c76565b60405180910390fd5b6001600160a01b03166000908152602081905260409020600401805461ff001916610100179055565b6002546001600160a01b031633146101f55760405162461bcd60e51b815260040161019990610c76565b6001600160a01b03808416600090815260208190526040902060010154849116156102625760405162461bcd60e51b815260206004820152601f60248201527f466f7262696464656e3a2042616e6b20616c72656164792065786973747320006044820152606401610199565b6001600160a01b0384166102cd5760405162461bcd60e51b815260206004820152602c60248201527f466f7262696464656e3a2042616e6b20616464726573732063616e277420626560448201526b1030b2323932b9b99418149760a11b6064820152608401610199565b6040518060c0016040528087878080601f0160208091040260200160405190810160405280939291908181526020018383808284376000920191909152505050908252506001600160a01b03861660208083019190915260408051601f8701839004830281018301825286815292019190869086908190840183828082843760009201829052509385525050506020808301829052600160408085018290526060909401526001600160a01b038816825281905220815181906103909082610d5f565b5060208201516001820180546001600160a01b0319166001600160a01b03909216919091179055604082015160028201906103cb9082610d5f565b506060820151600382015560808201516004909101805460a09093015115156101000261ff00199215159290921661ffff19909316929092171790556040516001600160a01b038516907ffa546bb3e6c48942f8fd9657657fcf70e6e429beed8a8b7735e24ede5500740290600090a2505050505050565b6001600160a01b03808216600090815260208190526040812060018101546003820154600483015483546060968795879586958695929491909316926002850192909160ff8083169261010090041690869061049e90610cd6565b80601f01602080910402602001604051908101604052809291908181526020018280546104ca90610cd6565b80156105175780601f106104ec57610100808354040283529160200191610517565b820191906000526020600020905b8154815290600101906020018083116104fa57829003601f168201915b5050505050955083805461052a90610cd6565b80601f016020809104026020016040519081016040528092919081815260200182805461055690610cd6565b80156105a35780601f10610578576101008083540402835291602001916105a3565b820191906000526020600020905b81548152906001019060200180831161058657829003601f168201915b5050505050935095509550955095509550955091939550919395565b6002546001600160a01b031633146105e95760405162461bcd60e51b815260040161019990610c76565b6001600160a01b03166000908152602081905260409020600401805460ff19166001179055565b6002546001600160a01b0316331461063a5760405162461bcd60e51b815260040161019990610c76565b6001600160a01b03166000908152602081905260409020600401805461ff0019169055565b3360009081526020819052604090206004015460ff61010090910416151560011461069c5760405162461bcd60e51b815260040161019990610e1f565b60008181526001602081905260409091200154819061010090046001600160a01b031633146107215760405162461bcd60e51b815260206004820152602b60248201527f556e617574686f72697365643a20416363657373206f6e6c7920666f7220436560448201526a0373a3930b6102130b735960ad1b6064820152608401610199565b5060009081526001602081905260409091208101805460ff19169091179055565b6002546001600160a01b0316331461076c5760405162461bcd60e51b815260040161019990610c76565b6001600160a01b03166000908152602081905260409020600401805460ff19169055565b60008181526001602081905260408220908101548154606093928392909160ff82169161010090046001600160a01b03169083906107cd90610cd6565b80601f01602080910402602001604051908101604052809291908181526020018280546107f990610cd6565b80156108465780601f1061081b57610100808354040283529160200191610846565b820191906000526020600020905b81548152906001019060200180831161082957829003601f168201915b505050505092509250925092509193909250565b3360009081526020819052604090206004015460ff1615156001146108915760405162461bcd60e51b815260040161019990610e1f565b604080516020808201869052338284015282518083038401815260609092018352815191810191909120600081815260019283905292909220015461010090046001600160a01b0316156109325760405162461bcd60e51b815260206004820152602260248201527f466f7262696464656e3a20437573746f6d657220616c72656164792065786973604482015261747360f01b6064820152608401610199565b604051806060016040528084848080601f016020809104026020016040519081016040528093929190818152602001838380828437600092018290525093855250505060208083018290523360409384015284825260019052208151819061099a9082610d5f565b50602082810151600192830180546040958601516001600160a01b031661010002610100600160a81b0319931515939093166001600160a81b03199091161791909117905533600090815290819052918220600301805491929091610a00908490610e74565b9091555050604051339085907f9c282561a075294699928cf6afe8853b2d407c02904b6266b7ab942d46a498f290600090a350505050565b80356001600160a01b0381168114610a4f57600080fd5b919050565b600060208284031215610a6657600080fd5b610a6f82610a38565b9392505050565b60008083601f840112610a8857600080fd5b50813567ffffffffffffffff811115610aa057600080fd5b602083019150836020828501011115610ab857600080fd5b9250929050565b600080600080600060608688031215610ad757600080fd5b853567ffffffffffffffff80821115610aef57600080fd5b610afb89838a01610a76565b9097509550859150610b0f60208901610a38565b94506040880135915080821115610b2557600080fd5b50610b3288828901610a76565b969995985093965092949392505050565b6000815180845260005b81811015610b6957602081850181015186830182015201610b4d565b506000602082860101526020601f19601f83011685010191505092915050565b60c081526000610b9c60c0830189610b43565b6001600160a01b03881660208401528281036040840152610bbd8188610b43565b606084019690965250509115156080830152151560a0909101529392505050565b600060208284031215610bf057600080fd5b5035919050565b606081526000610c0a6060830186610b43565b9315156020830152506001600160a01b0391909116604090910152919050565b600080600060408486031215610c3f57600080fd5b83359250602084013567ffffffffffffffff811115610c5d57600080fd5b610c6986828701610a76565b9497909650939450505050565b6020808252602a908201527f556e617574686f72697365643a20416363657373206f6e6c7920666f722043656040820152696e7472616c2042616e6b60b01b606082015260800190565b634e487b7160e01b600052604160045260246000fd5b600181811c90821680610cea57607f821691505b602082108103610d0a57634e487b7160e01b600052602260045260246000fd5b50919050565b601f821115610d5a57600081815260208120601f850160051c81016020861015610d375750805b601f850160051c820191505b81811015610d5657828155600101610d43565b5050505b505050565b815167ffffffffffffffff811115610d7957610d79610cc0565b610d8d81610d878454610cd6565b84610d10565b602080601f831160018114610dc25760008415610daa5750858301515b600019600386901b1c1916600185901b178555610d56565b600085815260208120601f198616915b82811015610df157888601518255948401946001909101908401610dd2565b5085821015610e0f5787850151600019600388901b60f8161c191681555b5050505050600190811b01905550565b60208082526035908201527f556e617574686f72697365643a204b594320416363657373206f6e6c7920666f60408201527439103832b936b4b9b9b4b7b732b2103130b735b99760591b606082015260800190565b80820180821115610e9557634e487b7160e01b600052601160045260246000fd5b9291505056fea264697066735822122016b350629eb650927fbd9ad8a594a7a7b098eaa250d1a1b47d01d3bfc5d350ff64736f6c63430008110033",
    "sourcePath": "c:/Work/adhar-based-kyc-encrypt-decrypt/sc/KYC.sol",
    "compiler": {
        "name": "solc",
        "version": "0.8.17+commit.8df45f5f"
    },
    "functionHashes": {
        "AddNewBank(string,address,string)": "543122a1",
        "AddNewCustomer(bytes32,string)": "f9ff32e6",
        "AllowBankforAddingCustomers(address)": "75b3a363",
        "AllowBankforKYC(address)": "4b2938bc",
        "BlockBankFromAddingCustomers(address)": "9324725a",
        "BlockBankFromPerformingKYC(address)": "7ac69a86",
        "RetrieveBankData(address)": "63ddf58c",
        "RetrieveCustomerData(bytes32)": "abddcde5",
        "UpdateCustomerKyc(bytes32)": "83b2fa6a"
    },
    "gasEstimates": {
        "creation": {
            "codeDepositCost": "758600",
            "executionCost": "25027",
            "totalCost": "783627"
        },
        "external": {
            "AddNewBank(string,address,string)": "infinite",
            "AddNewCustomer(bytes32,string)": "infinite",
            "AllowBankforAddingCustomers(address)": "26826",
            "AllowBankforKYC(address)": "26760",
            "BlockBankFromAddingCustomers(address)": "26797",
            "BlockBankFromPerformingKYC(address)": "26753",
            "RetrieveBankData(address)": "infinite",
            "RetrieveCustomerData(bytes32)": "infinite",
            "UpdateCustomerKyc(bytes32)": "29014"
        }
    }
}